{
  "contractName": "PaymentContract",
  "abi": [
    {
      "inputs": [],
      "stateMutability": "nonpayable",
      "type": "constructor"
    },
    {
      "inputs": [],
      "name": "owner",
      "outputs": [
        {
          "internalType": "address",
          "name": "",
          "type": "address"
        }
      ],
      "stateMutability": "view",
      "type": "function",
      "constant": true
    },
    {
      "inputs": [
        {
          "internalType": "address payable",
          "name": "recipient",
          "type": "address"
        }
      ],
      "name": "pay",
      "outputs": [],
      "stateMutability": "payable",
      "type": "function",
      "payable": true
    }
  ],
  "bytecode": "0x608060405234801561001057600080fd5b50336000806101000a81548173ffffffffffffffffffffffffffffffffffffffff021916908373ffffffffffffffffffffffffffffffffffffffff160217905550610290806100606000396000f3fe6080604052600436106100295760003560e01c80630c11dedd1461002e5780638da5cb5b1461004a575b600080fd5b6100486004803603810190610043919061013b565b610075565b005b34801561005657600080fd5b5061005f610102565b60405161006c91906101b3565b60405180910390f35b600034116100b8576040517f08c379a00000000000000000000000000000000000000000000000000000000081526004016100af906101ce565b60405180910390fd5b8073ffffffffffffffffffffffffffffffffffffffff166108fc349081150290604051600060405180830381858888f193505050501580156100fe573d6000803e3d6000fd5b5050565b60008054906101000a900473ffffffffffffffffffffffffffffffffffffffff1681565b60008135905061013581610243565b92915050565b60006020828403121561014d57600080fd5b600061015b84828501610126565b91505092915050565b61016d816101ff565b82525050565b6000610180600f836101ee565b91507f53656e6420736f6d6520457468657200000000000000000000000000000000006000830152602082019050919050565b60006020820190506101c86000830184610164565b92915050565b600060208201905081810360008301526101e781610173565b9050919050565b600082825260208201905092915050565b600061020a82610223565b9050919050565b600061021c82610223565b9050919050565b600073ffffffffffffffffffffffffffffffffffffffff82169050919050565b61024c81610211565b811461025757600080fd5b5056fea264697066735822122025624b9dd8f50d782d1a8a44e10a867488edd091d8425dd7f1745c049e8b4e7d64736f6c63430008000033",
  "immutableReferences": {},
  "source": "// SPDX-License-Identifier: MIT\npragma solidity ^0.8.0;\n\ncontract PaymentContract {\n    address public owner;\n\n    constructor() {\n        owner = msg.sender;\n    }\n\n     function pay(address payable recipient) public payable {\n         require(msg.value > 0, \"Send some Ether\");\n         recipient.transfer(msg.value);\n     }\n}\n",
  "sourcePath": "D:\\final\\frontend\\contracts\\PaymentContract.sol",
  "compiler": {
    "name": "solc",
    "version": "0.8.0+commit.c7dfd78e.Emscripten.clang"
  },
  "schemaVersion": "3.4.16",
  "updatedAt": "2024-07-08T00:12:13.613Z",
  "networkType": "ethereum",
  "devdoc": {
    "kind": "dev",
    "methods": {},
    "version": 1
  },
  "userdoc": {
    "kind": "user",
    "methods": {},
    "version": 1
  }
}